:03000000020003F8
:0C000300787FE4F6D8FD75810B02004AFE
:08012E00020A00FE02080000B5
:10010E00D3EF9400EE6480948040147DE87C03ED80
:0F011E001D70011CED4C70F7EF1F70E41E80E1A7
:01012D0022AF
:10008F00E5A0F460577F017E0012010EE5A0F46039
:10009F004BAFA0EF2405601E24FE603A14703DE5BF
:1000AF000B64FE450A6035E50BF4FFE50AF4A2E7A1
:1000BF0013FEEF138018E50B647F450A601EE50BF6
:1000CF00F4FFE50AF4FEEF25E0FFEE33FEEFF4F563
:0D00DF000BEEF4F50A226309FF6308FF220F
:1000EC0075A0FF850B8012008F7F327E0012010EEF
:1000FC00E509450860ED7580FF7F327E0012010E28
:02010C0080E190
:10000F000200ECE493A3F8E493A34003F68001F21B
:10001F0008DFF48029E493A3F85407240CC8C333F2
:10002F00C4540F4420C8834004F456800146F6DFC1
:10003F00E4800B010204081020408090012EE47E22
:10004F00019360BCA3FF543F30E509541FFEE493B6
:10005F00A360010ECF54C025E060A840B8E493A37D
:10006F00FAE493A3F8E493A3C8C582C8CAC583CAA8
:10007F00F0A3C8C582C8CAC583CADFE9DEE780BE60
:0101360000C8
:00000001FF
