:030000000201CD2D
:0C01CD00787FE4F6D8FD7581190200036C
:10000300D2A0D2A1D2A2D2A3D2A4D2A5D2A6D2A741
:10001300750800750901750A00750B01750C0075EB
:100023000D01750E00750F01751000751101751224
:100033000075130175140075150175160075170108
:1000430020A0080509E5097002050820A108050B91
:10005300E50B7002050A20A208050DE50D700205E7
:100063000C20A308050FE50F7002050E20A4080558
:1000730011E5117002051020A5080513E5137002A0
:10008300051220A6080515E5157002051420A7081A
:100093000517E51770020516AE08AF097C007D024F
:1000A300120142EC4D24FF9280AE0AAF0B7C007D1F
:1000B30002120142EC4D24FF9281AE0CAF0D7C0085
:1000C3007D02120142EC4D24FF9282AE0EAF0F7CF3
:1000D300007D02120142EC4D24FF9283AE10AF115A
:1000E3007C007D02120142EC4D24FF9284AE12AFDC
:1000F300137C007D02120142EC4D24FF9285AE1465
:10010300AF157C007D02120142EC4D24FF9286AEB6
:1001130016AF177C007D02120142EC4D24FF92873B
:10012300E4F518F519C3E51994F4E518648094818E
:0F01330040030200430519E51970EA051880E63C
:10014200C2D5EC30E709B2D5E4C39DFDE49CFCEED8
:1001520030E715B2D5E4C39FFFE49EFE120178C3D7
:10016200E49DFDE49CFC800312017830D507C3E4D2
:060172009FFFE49EFE2247
:10017800BC000BBE0029EF8DF084FFADF022E4CC6B
:10018800F875F008EF2FFFEE33FEEC33FCEE9DEC34
:10019800984005FCEE9DFE0FD5F0E9E4CEFD22ED7A
:1001A800F8F5F0EE8420D21CFEADF075F008EF2FC4
:1001B800FFED33FD4007985006D5F0F222C398FDB5
:0501C8000FD5F0EA2252
:00000001FF
