:03000000020006F5
:0C000600787FE4F6D8FD75810A02004DF9
:03013B00010901B6
:1000F800E5A0F460127E640EEE70FCE5A0F46002E8
:07010800AFA0E5A0B4FFFB6E
:01010F0022CD
:10009200BFFE0FE508D3947F4008E50825E0440140
:1000A200F508BFFD0FE508C394FE5008E508C31329
:1000B2004480F508BFFB0BE5096004E4F5092275ED
:0300C2000901220F
:030003000200C533
:1000C500C0E0C0D075D000C006C0071200F812000D
:0A00D50092D007D006D0D0D0E03260
:1000DF008F0AED7010850A807FC81201107580FF9E
:0900EF007FC8020110850A80227D
:1001270075A881D2887580FE858008AD09AF081251
:0401370000DF80F76E
:10011000EFD3940040107D647C00ED1D70011CED58
:060120004C70F71F80EA9D
:0101260022B6
:10001200020127E493A3F8E493A34003F68001F2DC
:1000220008DFF48029E493A3F85407240CC8C333EF
:10003200C4540F4420C8834004F456800146F6DFBE
:10004200E4800B010204081020408090013BE47E12
:10005200019360BCA3FF543F30E509541FFEE493B3
:10006200A360010ECF54C025E060A840B8E493A37A
:10007200FAE493A3F8E493A3C8C582C8CAC583CAA5
:10008200F0A3C8C582C8CAC583CADFE9DEE780BE5D
:01013E0000C0
:00000001FF
