:0300000002007388
:0C007300787FE4F6D8FD75810702007F5D
:0A007F0075A881D2887580FE80FE0E
:03000300020006F2
:10000600C0E0C0F0C083C082C0D075D000C000C0C0
:1000160001C002C003C004C005C006C00712005DCF
:10002600120044D007D006D005D004D003D002D0A9
:0E00360001D000D0D0D082D083D0F0D0E03204
:10005D00E5A0F460107E64DEFEE5A0F46002AFA0C2
:05006D00E5A0B4FFFB5B
:01007200226B
:10004400BFFE15E580D394FF500EE580947F4008F1
:09005400E58025E04401F580225D
:00000001FF
