:03000000020800F3
:0C080000787FE4F6D8FD758117020847E8
:1008DD001008000100020004000800100020004074
:0208ED00008089
:1008B900AC06AD07D3ED9400EC6480948040147AC3
:1008C900007B6EEB1B70011AEB4A70F7ED1D70E4AB
:0308D9001C80E19F
:0108DC0022F9
:10088C009000007590010582E582700205831425A5
:10089C00E02408F808E6F5907FE87E031208B9E535
:0D08AC00826408458370DFF583F58280D9F2
:10080C0002088CE493A3F8E493A34003F68001F26E
:10081C0008DFF48029E493A3F85407240CC8C333ED
:10082C00C4540F4420C8834004F456800146F6DFBC
:10083C00E4800B01020408102040809008DDE47E67
:10084C00019360BCA3FF543F30E509541FFEE493B1
:10085C00A360010ECF54C025E060A840B8E493A378
:10086C00FAE493A3F8E493A3C8C582C8CAC583CAA3
:10087C00F0A3C8C582C8CAC583CADFE9DEE780BE5B
:0108EF000008
:00000001FF
