:03000000020003F8
:0C000300787FE4F6D8FD75810F02004AFA
:0A00AE000808FEFDFBF7EFDFBF7F3F
:0C00A100E4FFE4FE0EBEE1FC0FBFE1F640
:0100AD002230
:10008F00E4FD74082DF8E6F5901200A10DBD08F2FD
:02009F0080EEF1
:10000F0002008FE493A3F8E493A34003F68001F278
:10001F0008DFF48029E493A3F85407240CC8C333F2
:10002F00C4540F4420C8834004F456800146F6DFC1
:10003F00E4800B01020408102040809000AEE47EA3
:10004F00019360BCA3FF543F30E509541FFEE493B6
:10005F00A360010ECF54C025E060A840B8E493A37D
:10006F00FAE493A3F8E493A3C8C582C8CAC583CAA8
:10007F00F0A3C8C582C8CAC583CADFE9DEE780BE60
:0100B8000047
:00000001FF
