:0300000002009863
:0C009800787FE4F6D8FD758109020003B2
:10008300750800750964E509150970021508E50985
:05009300450870F22297
:1000030020A00D12008320A002B28020A0F280FB6A
:1000130020A10D12008320A102B28120A1E280FB66
:1000230020A20D12008320A202B28220A2D280FB62
:1000330020A30D12008320A302B28320A3C280FB5E
:1000430020A40D12008320A402B28420A4B280FB5A
:1000530020A50D12008320A502B28520A5A280FB56
:1000630020A60D12008320A602B28620A69280FB52
:1000730020A78D12008320A702B28720A78280FBCE
:00000001FF
