:0300000002009B60
:0C009B00787FE4F6D8FD758107020003B1
:10007B00D3EF9400EE6480948040147DE87C03ED14
:0F008B001D70011CED4C70F7EF1F70E41E80E13B
:01009A002243
:10000300E4FBFA7580FF75A0FFE5A0F460FB7F01B8
:100013007E0012007BE5A0F460EFAFA0EF248160C7
:100023003724C0602F24E0602724F0601F24F86089
:100033001724FC600F24FE600714701EB280801A20
:10004300B2818016B2828012B283800EB284800A9B
:10005300B2858006B2868002B287D3EB9414EA6439
:1000630080948050A4E5A0F4609F7F017E0012007D
:080073007B0BBB00010A80E2D7
:00000001FF
